:03000000020AF9F8
:0C0AF900787FE4F6D8FD758149020B40BF
:100D38000E3CC0F9A4B0999282F88090868E89BF43
:100D4800012800013000012900C105012D000126FC
:100D580000012E00012C0001270001310A01363262
:0D0D6800012500013214022A0000013701AC
:100E4200EF1FAA0670011E4A600B7D78EDD3940055
:050E520040EE1D80F7D9
:010E57002278
:100B8500AC07EC75F06484243CF8E6F580D2A7C286
:100B9500A6D2A5D2A47F017E00120BEAD2A7D2A6C7
:100BA500D2A5D2A4EC75F06484E5F075F00A84242E
:100BB5003CF8E6F580C2A7D2A6D2A5D2A47F017ED5
:100BC50000120BEAD2A7D2A6D2A5D2A4EC75F00AE0
:100BD50084743C25F0F8E6F580D2A7D2A6C2A5D24A
:050BE500A47F017E0069
:100BEA00EF1FAA0670011E4A600B7D06EDD3940022
:050BFA0040EE1D80F734
:010BFF0022D3
:100DA200120B85D2A7D2A6D2A5D2A4854780D2A7FC
:100DB200D2A6D2A5C2A4120BE6D2A7D2A6D2A5D29F
:020DC200A42269
:100DC400120B85D2A7D2A6D2A5D2A4854880D2A7D9
:100DD400D2A6D2A5C2A4120BE6D2A7D2A6D2A5D27D
:020DE400A42247
:100C5600854980D2A7C2A6D2A5120BE4D2A7D2A6F6
:100C6600D2A5D2A4854980C2A7D2A6D2A5120BE4EA
:100C7600D2A7D2A6D2A5D2A4854980120BDED2A7CE
:100C8600D2A6D2A5D2A4854980D2A7D2A6D2A5C281
:0D0C9600A4120BE6D2A7D2A6D2A5D2A422AA
:100CA300854680D2A7C2A6D2A5120BE4D2A7D2A6AC
:100CB300D2A5D2A4854680C2A7D2A6D2A5120BE4A0
:100CC300D2A7D2A6D2A5D2A4854680120BDED2A784
:100CD300D2A6D2A5D2A4854680D2A7D2A6D2A5C237
:0D0CE300A4120BE6D2A7D2A6D2A5D2A4225D
:040E07008E838F82C5
:100E0B00E5821582AE83700215834E600E7C78EC02
:0B0E1B00D3940040EB120CA31C80F4E9
:010E260022A9
:100D76002093057528018003E4F528209405753035
:100D8600018003E4F530209505752D018003E4F517
:0C0D96002D20960475290122E4F5292285
:100A2600753214E5386003020AF8E52F6003020AFE
:100A3600F8E526B4010FE4F5260525E525C394035C
:100A46004003E4F525E52E64017026F52EE525B470
:100A5600010E0536E536D394784016E4F536801156
:100A6600E525B4020C0531E531D394784003E4F56D
:100A760031E52C64017026F52CE525B4010E1536FA
:100A8600E536D3940050167536788011E525B40204
:100A96000C1531E531D394005003753178E52764A0
:100AA60001704FE53B64017049F5278536997F143F
:100AB600FE120BEAE5312480F599E532641460FAFA
:100AC600E532701075310A7536327F03FE120E0755
:100AD600E4F52522E532B40119752501753801754D
:100AE60099FCC291D290753300753405E536C3136F
:030AF600F53522B1
:100CF000852821853022852D23852924120D76E52E
:100D00002165286008E528B40103752601E5226500
:100D1000306008E530B40103752E01E523652D60D0
:100D200008E52DB40103752C01E52465296008E56B
:080D300029B40103752701221B
:100E2700A2059201209704D2058002C205A20130D3
:0B0E37000501B35005300502D2042273
:10080000758921758CEC758A77759850E4F5877534
:100810008DFD758BFDF538F52FC291C2907599FB52
:10082000C203D200753B01C20575A89AF539F53AA5
:10083000D28CD28E200355300006120A26120CF0FC
:10084000120DE6E5257003FF8007E525B40107AF2B
:1008500036120DA2800AE525B40205AF31120DC48F
:10086000120E273004CEC204E53A2401FF75390088
:10087000EF5401F53A640145397008F53BC291C265
:100880009080B1753B01C291D29080A83003A5E55C
:100890003870A1E52F709DD202C200752501120C9F
:1008A00056300214120C562003F7E4F525D20075D9
:1008B000310A7536327599FA200303020834E53B94
:1008C00070177599FFE53B7010120E273004F6C2C1
:1008D000047599F9753B0180EC7F0A7E00120E4287
:1008E0007538017599FEC291D29075330075340543
:1008F000E536C313F535E4F539F53A20030302086C
:1009000034120DE6E525B40107AF36120DA2800AB8
:10091000E525B40205AF31120DC4120E273004DBF9
:10092000C204E53A2401FF753900EF5401F53A6439
:10093000014539700B7599FFF53BC291C29080BBA0
:0C0940007599F9753B01C291D29080AF0F
:100DE600309107C2A3D2A2D2A122309007D2A3C2C9
:100DF600A2D2A122209109209006D2A3D2A2C2A1FA
:010E060022C9
:03000B0002094C9B
:10094C00C0E0C0D075D000C002C005C006C007759D
:10095C008CFC758A17E53B64016003020A19E538C3
:10096C0064017054C200052BE52B7002052AC39458
:10097C00E8E52A94034041752A00752B000534E5FF
:10098C003470020533E537B40115C3E5349405E53D
:10099C00339400400AB291B290753300753400D58F
:1009AC003616753800753632752F01752A00752B81
:1009BC0000752502C291C290E52F6401704FE53B92
:1009CC0064017049052BE52B7002052AC291D29067
:1009DC00C394E8E52A94034034752A00752B00155E
:1009EC0031E5317028F52F75310AF52AF52BC291B6
:1009FC00C2907FE87E03120E42752500C202D2001F
:100A0C003003057599FD80037599FBC203D007D09F
:0A0A1C0006D005D002D0D0D0E032A1
:03002300020C00CC
:090C0000C0E0C0D075D000C007AF
:100C090030983BC298E5387035E52F7031AF99BF00
:100C1900FF04D2038028BFFE04C2038021BFFB0565
:100C29007532018019BFFA057532008011EFC3943E
:100C39008050048F368007EF2480F531C202309945
:060C4900053099FDC2997F
:070C4F00D007D0D0D0E03245
:100B0500020800E493A3F8E493A34003F68001F2FE
:100B150008DFF48029E493A3F85407240CC8C333F1
:100B2500C4540F4420C8834004F456800146F6DFC0
:100B3500E4800B0102040810204080900D38E47E0B
:100B4500019360BCA3FF543F30E509541FFEE493B5
:100B5500A360010ECF54C025E060A840B8E493A37C
:100B6500FAE493A3F8E493A3C8C582C8CAC583CAA7
:100B7500F0A3C8C582C8CAC583CADFE9DEE780BE5F
:010D7500007D
:00000001FF
